{
  "contractName": "Lottery",
  "abi": [
    {
      "constant": true,
      "inputs": [],
      "name": "owner",
      "outputs": [
        {
          "name": "",
          "type": "address"
        }
      ],
      "payable": false,
      "stateMutability": "view",
      "type": "function"
    },
    {
      "inputs": [],
      "payable": false,
      "stateMutability": "nonpayable",
      "type": "constructor"
    },
    {
      "anonymous": false,
      "inputs": [
        {
          "indexed": false,
          "name": "index",
          "type": "uint256"
        },
        {
          "indexed": false,
          "name": "bettor",
          "type": "address"
        },
        {
          "indexed": false,
          "name": "amount",
          "type": "uint256"
        },
        {
          "indexed": false,
          "name": "challenges",
          "type": "bytes1"
        },
        {
          "indexed": false,
          "name": "answerBlockNumber",
          "type": "uint256"
        }
      ],
      "name": "BET",
      "type": "event"
    },
    {
      "constant": true,
      "inputs": [],
      "name": "getPot",
      "outputs": [
        {
          "name": "value",
          "type": "uint256"
        }
      ],
      "payable": false,
      "stateMutability": "view",
      "type": "function"
    },
    {
      "constant": false,
      "inputs": [
        {
          "name": "challenges",
          "type": "bytes1"
        }
      ],
      "name": "bet",
      "outputs": [
        {
          "name": "result",
          "type": "bool"
        }
      ],
      "payable": true,
      "stateMutability": "payable",
      "type": "function"
    },
    {
      "constant": false,
      "inputs": [],
      "name": "distribute",
      "outputs": [],
      "payable": false,
      "stateMutability": "nonpayable",
      "type": "function"
    },
    {
      "constant": true,
      "inputs": [
        {
          "name": "challenges",
          "type": "bytes1"
        },
        {
          "name": "answer",
          "type": "bytes32"
        }
      ],
      "name": "isMatch",
      "outputs": [
        {
          "name": "",
          "type": "uint8"
        }
      ],
      "payable": false,
      "stateMutability": "pure",
      "type": "function"
    },
    {
      "constant": true,
      "inputs": [
        {
          "name": "index",
          "type": "uint256"
        }
      ],
      "name": "getBetInfo",
      "outputs": [
        {
          "name": "answerBlockNumber",
          "type": "uint256"
        },
        {
          "name": "bettor",
          "type": "address"
        },
        {
          "name": "challenges",
          "type": "bytes1"
        }
      ],
      "payable": false,
      "stateMutability": "view",
      "type": "function"
    }
  ],
  "bytecode": "0x608060405234801561001057600080fd5b5033600360006101000a81548173ffffffffffffffffffffffffffffffffffffffff021916908373ffffffffffffffffffffffffffffffffffffffff160217905550610d80806100616000396000f3fe608060405260043610610078576000357c0100000000000000000000000000000000000000000000000000000000900463ffffffff168063403c9fa81461007d57806379141f80146100a85780638da5cb5b1461017557806399a167d7146101cc578063e4fc6b6d14610255578063f4b46f5b1461026c575b600080fd5b34801561008957600080fd5b506100926102d4565b6040518082815260200191505060405180910390f35b3480156100b457600080fd5b506100e1600480360360208110156100cb57600080fd5b81019080803590602001909291905050506102de565b604051808481526020018373ffffffffffffffffffffffffffffffffffffffff1673ffffffffffffffffffffffffffffffffffffffff168152602001827effffffffffffffffffffffffffffffffffffffffffffffffffffffffffffff19167effffffffffffffffffffffffffffffffffffffffffffffffffffffffffffff19168152602001935050505060405180910390f35b34801561018157600080fd5b5061018a610403565b604051808273ffffffffffffffffffffffffffffffffffffffff1673ffffffffffffffffffffffffffffffffffffffff16815260200191505060405180910390f35b3480156101d857600080fd5b50610231600480360360408110156101ef57600080fd5b8101908080357effffffffffffffffffffffffffffffffffffffffffffffffffffffffffffff1916906020019092919080359060200190929190505050610429565b6040518082600281111561024157fe5b60ff16815260200191505060405180910390f35b34801561026157600080fd5b5061026a610772565b005b6102ba6004803603602081101561028257600080fd5b8101908080357effffffffffffffffffffffffffffffffffffffffffffffffffffffffffffff1916906020019092919050505061090d565b604051808215151515815260200191505060405180910390f35b6000600454905090565b60008060006102eb610cfa565b6002600086815260200190815260200160002060606040519081016040529081600082015481526020016001820160009054906101000a900473ffffffffffffffffffffffffffffffffffffffff1673ffffffffffffffffffffffffffffffffffffffff1673ffffffffffffffffffffffffffffffffffffffff1681526020016001820160149054906101000a90047f0100000000000000000000000000000000000000000000000000000000000000027effffffffffffffffffffffffffffffffffffffffffffffffffffffffffffff19167effffffffffffffffffffffffffffffffffffffffffffffffffffffffffffff1916815250509050806000015193508060200151925080604001519150509193909250565b600360009054906101000a900473ffffffffffffffffffffffffffffffffffffffff1681565b6000808390506000849050600084600060208110151561044557fe5b1a7f0100000000000000000000000000000000000000000000000000000000000000029050600085600060208110151561047b57fe5b1a7f01000000000000000000000000000000000000000000000000000000000000000290506004847effffffffffffffffffffffffffffffffffffffffffffffffffffffffffffff1916908060020a820491505093506004847effffffffffffffffffffffffffffffffffffffffffffffffffffffffffffff19169060020a0293506004827effffffffffffffffffffffffffffffffffffffffffffffffffffffffffffff1916908060020a820491505091506004827effffffffffffffffffffffffffffffffffffffffffffffffffffffffffffff19169060020a0291506004837effffffffffffffffffffffffffffffffffffffffffffffffffffffffffffff19169060020a0292506004837effffffffffffffffffffffffffffffffffffffffffffffffffffffffffffff1916908060020a820491505092506004817effffffffffffffffffffffffffffffffffffffffffffffffffffffffffffff19169060020a0290506004817effffffffffffffffffffffffffffffffffffffffffffffffffffffffffffff1916908060020a82049150509050837effffffffffffffffffffffffffffffffffffffffffffffffffffffffffffff1916827effffffffffffffffffffffffffffffffffffffffffffffffffffffffffffff19161480156106aa5750827effffffffffffffffffffffffffffffffffffffffffffffffffffffffffffff1916817effffffffffffffffffffffffffffffffffffffffffffffffffffffffffffff1916145b156106bc57600194505050505061076c565b837effffffffffffffffffffffffffffffffffffffffffffffffffffffffffffff1916827effffffffffffffffffffffffffffffffffffffffffffffffffffffffffffff191614806107515750827effffffffffffffffffffffffffffffffffffffffffffffffffffffffffffff1916817effffffffffffffffffffffffffffffffffffffffffffffffffffffffffffff1916145b1561076357600294505050505061076c565b60009450505050505b92915050565b600061077c610cfa565b600060015492505b600054831015610908576002600084815260200190815260200160002060606040519081016040529081600082015481526020016001820160009054906101000a900473ffffffffffffffffffffffffffffffffffffffff1673ffffffffffffffffffffffffffffffffffffffff1673ffffffffffffffffffffffffffffffffffffffff1681526020016001820160149054906101000a90047f0100000000000000000000000000000000000000000000000000000000000000027effffffffffffffffffffffffffffffffffffffffffffffffffffffffffffff19167effffffffffffffffffffffffffffffffffffffffffffffffffffffffffffff19168152505091506108968260000151610ade565b9050600060028111156108a557fe5b8160028111156108b157fe5b5050600160028111156108c057fe5b8160028111156108cc57fe5b14156108d757610908565b6002808111156108e357fe5b8160028111156108ef57fe5b50506108fa83610b32565b508280600101935050610784565b505050565b60006611c37937e080003414151561098d576040517f08c379a000000000000000000000000000000000000000000000000000000000815260040180806020018281038252600e8152602001807f4e6f7420656e6f7567682045544800000000000000000000000000000000000081525060200191505060405180910390fd5b61099682610b96565b1515610a0a576040517f08c379a000000000000000000000000000000000000000000000000000000000815260040180806020018281038252601a8152602001807f4661696c20746f206164642061206e65772042657420496e666f00000000000081525060200191505060405180910390fd5b7f100791de9f40bf2d56ffa6dc5597d2fd0b2703ea70bc7548cd74c04f5d215ab760016000540333348560034301604051808681526020018573ffffffffffffffffffffffffffffffffffffffff1673ffffffffffffffffffffffffffffffffffffffff168152602001848152602001837effffffffffffffffffffffffffffffffffffffffffffffffffffffffffffff19167effffffffffffffffffffffffffffffffffffffffffffffffffffffffffffff191681526020018281526020019550505050505060405180910390a1919050565b60008143118015610af25750816101000143105b15610b005760009050610b2d565b8143111515610b125760019050610b2d565b610100820143101515610b285760029050610b2d565b600290505b919050565b6000600260008381526020019081526020016000206000808201600090556001820160006101000a81549073ffffffffffffffffffffffffffffffffffffffff02191690556001820160146101000a81549060ff0219169055505060019050919050565b6000610ba0610cfa565b33816020019073ffffffffffffffffffffffffffffffffffffffff16908173ffffffffffffffffffffffffffffffffffffffff1681525050600343018160000181815250508281604001907effffffffffffffffffffffffffffffffffffffffffffffffffffffffffffff191690817effffffffffffffffffffffffffffffffffffffffffffffffffffffffffffff1916815250508060026000805481526020019081526020016000206000820151816000015560208201518160010160006101000a81548173ffffffffffffffffffffffffffffffffffffffff021916908373ffffffffffffffffffffffffffffffffffffffff16021790555060408201518160010160146101000a81548160ff02191690837f01000000000000000000000000000000000000000000000000000000000000009004021790555090505060008081548092919060010191905055506001915050919050565b60606040519081016040528060008152602001600073ffffffffffffffffffffffffffffffffffffffff16815260200160007effffffffffffffffffffffffffffffffffffffffffffffffffffffffffffff19168152509056fea165627a7a72305820c0ef46232bb023178e3a2efd40fed264b921d7baba73bccc7c3bcdf5d7071e670029",
  "source": "// SPDX-License-Identifier: MIT\npragma solidity >=0.4.22 <0.9.0;\n\ncontract Lottery{\n    struct BetInfo{\n        uint256 answerBlockNumber;\n        address bettor;\n        bytes1 challenges;\n    }\n\n    uint256 private _tail;\n    uint256 private _head;\n    mapping(uint256 => BetInfo) private _bets;\n\n    address public owner;\n\n    uint256 constant internal BLOCK_LIMIT = 256;\n    uint256 constant internal BET_BLOCK_INTERVAL = 3;\n    uint256 constant internal BET_AMOUNT = 5 * 10 ** 15;\n    uint256 private _pot;\n\n    enum BettingResult {Fail, Win, Draw}\n    enum BlockStatus {Checkable, NotRevealed, BlockLimitPassed}\n\n    event BET(uint256 index, address bettor, uint256 amount, bytes1 challenges, uint256 answerBlockNumber);\n\n    constructor() public{\n        owner = msg.sender;\n    }\n    function getPot() public view returns (uint256 value) {\n        return _pot;\n    }\n\n    /**\n     * @dev 베팅을 한다. 유저는 0.005 ETH를 보내야하고, 베팅용 1 byte 글자를 보낸다.\n     * 큐에 저장된 베팅 정보는 이후 distribute 함수에서 해결된다.\n     * @param challenges 유저가 베팅하는 글자\n     * @return result 함수가 잘 수행되었는지 확인하는 bool 값\n     */\n    function bet(bytes1 challenges) public payable returns (bool result){\n        // check the proper ether is sent\n        require(msg.value == BET_AMOUNT, \"Not enough ETH\");\n\n        // push bet to the queue\n        require(pushBet(challenges), \"Fail to add a new Bet Info\");\n\n        // emit event\n        emit BET(_tail - 1, msg.sender, msg.value, challenges, block.number + BET_BLOCK_INTERVAL);\n    }\n    // - save the bet to the queue\n\n    // Distribute\n    function distribute() public {\n        // head 3 4 5 6 7 8 9 10 11 tail\n        // 3번 값을 확인 해보고 정답이면 돈 지급\n        // 아니라면 pot 머니에 저장\n        // 너무 밀려서 3 ... 286 이라면 돈 리턴\n        uint256 cur;\n        BetInfo memory b;\n        BlockStatus currentBlockStatus;\n\n        for(cur=_head; cur < _tail; cur++){\n            b = _bets[cur];\n            currentBlockStatus = getBLockStatus(b.answerBlockNumber);\n\n            // Checkable : block.number > AnswerBlockNumber && block.number < BLOCK_LIMIT + AnswerBlockNumber\n            if(currentBlockStatus == BlockStatus.Checkable){\n                // if win, bettor gets pot\n                \n                // if fail, better's money goes pot\n\n                // if draw, refund bettor's money\n            }\n\n            // Not Revealed : block.number <= AnswerBlockNumber\n            if(currentBlockStatus == BlockStatus.NotRevealed){\n                break;\n            }\n\n            // Block limit passed : block.number >= AnswerBlockNumber + BLOCK_LIMIT\n            if(currentBlockStatus == BlockStatus.BlockLimitPassed){\n                // refund\n                // emit refund\n            }\n            \n            popBet(cur);\n        }\n    }\n\n    /**\n     * @dev 베팅글자와 정답을 확인.\n     * @param challenges 베팅 글자\n     * @param answer 블락해쉬\n     * @return 정답 결과\n     */\n    function isMatch(bytes1 challenges, bytes32 answer) public pure returns (BettingResult){\n        //challenges 0xab\n        // answer 0xab........ff 32 bytes\n\n        bytes1 c1 = challenges;\n        bytes1 c2 = challenges;\n\n        bytes1 a1 = answer[0];\n        bytes1 a2 = answer[0];\n\n        // Get first number\n        c1 = c1 >> 4;   // 0xab => 0x0a\n        c1 = c1 << 4;   // 0x0a => 0xa0\n\n        a1 = a1 >> 4;\n        a1 = a1 << 4;\n\n        // Get Second number\n        c2 = c2 << 4;   // 0xab => 0xb0\n        c2 = c2 >> 4;   // 0xb0 => oxab\n\n        a2 = a2 << 4;\n        a2 = a2 >> 4;\n\n        if(a1 == c1 && a2 == c2){\n            return BettingResult.Win;\n        }\n\n        if(a1 == c1 || a2 == c2){\n            return BettingResult.Draw;\n        }\n\n        return BettingResult.Fail;\n    }\n    \n    function getBLockStatus(uint256 answerBlockNumber) internal view returns (BlockStatus) {\n        if(block.number > answerBlockNumber && block.number < BLOCK_LIMIT + answerBlockNumber)\n            return BlockStatus.Checkable;\n\n        if(block.number <= answerBlockNumber)\n            return BlockStatus.NotRevealed;\n\n        if(block.number >= answerBlockNumber + BLOCK_LIMIT)\n            return BlockStatus.BlockLimitPassed;\n\n        return BlockStatus.BlockLimitPassed;\n    }\n\n    function getBetInfo(uint256 index) public view returns (uint256 answerBlockNumber, address bettor, bytes1 challenges){\n        BetInfo memory b = _bets[index];\n        answerBlockNumber = b.answerBlockNumber;\n        bettor = b.bettor;\n        challenges = b.challenges;\n    }\n\n    function pushBet(bytes1 challenges) internal returns (bool){\n        BetInfo memory b;\n        b.bettor = msg.sender;\n        b.answerBlockNumber = block.number + BET_BLOCK_INTERVAL;\n        b.challenges = challenges;\n\n        _bets[_tail] = b;\n        _tail++;\n\n        return true;\n    }\n\n    function popBet(uint256 index) internal returns (bool){\n        // delete하면 데이터를 저장하지 않겠다는 의미로 일정량의 가스비를 돌려받음\n        delete _bets[index];\n        return true;\n    }\n}",
  "sourcePath": "/Users/gyojink/lottery_DApp/lottery_smart_contract/contracts/Lottery.sol",
  "compiler": {
    "name": "solc",
    "version": "0.5.0+commit.1d4f565a.Emscripten.clang"
  },
  "schemaVersion": "3.0.1",
  "updatedAt": "2023-07-28T15:12:54.163Z",
  "devdoc": {
    "methods": {
      "bet(bytes1)": {
        "details": "베팅을 한다. 유저는 0.005 ETH를 보내야하고, 베팅용 1 byte 글자를 보낸다. 큐에 저장된 베팅 정보는 이후 distribute 함수에서 해결된다.",
        "params": {
          "challenges": "유저가 베팅하는 글자"
        },
        "return": "result 함수가 잘 수행되었는지 확인하는 bool 값"
      },
      "isMatch(bytes1,bytes32)": {
        "details": "베팅글자와 정답을 확인.",
        "params": {
          "answer": "블락해쉬",
          "challenges": "베팅 글자"
        },
        "return": "정답 결과"
      }
    }
  },
  "userdoc": {
    "methods": {}
  }
}